:1000000010C017C016C015C014C013C012C011C054
:1000100010C00FC00EC00DC00CC00BC00AC009C07C
:1000200008C011241FBECFE5D1E0DEBFCDBF32D066
:1000300050C0E6CF82EE94E099BD88BD2FEF81E1FC
:100040009AE7215080409040E1F700C000000895F9
:1000500083E597E099BD88BD2FEF81E19AE72150B4
:1000600080409040E1F700C00000089584EC99E0E2
:1000700099BD88BD2FEF81E19AE7215080409040E3
:10008000E1F700C0000008958CBFC298089586BFB4
:10009000DF98089580E886BD16BC80E28FBD82E1BE
:1000A0008EBD88EA91E695BD84BDD59ADD9883EA38
:1000B00080BF82E083BFD79ADF98BA9AC298BADF2E
:1000C0008FEF90E0E1DFC4DF8AEA90E0E0DFCEDF8F
:0600D000F6CFF894FFCF0B
:00000001FF
