:1000000010C01FC01EC01DC01CC01BC01AC019C01C
:1000100018C017C016C015C014C013C012C011C03C
:1000200010C011241FBECFE5D1E0DEBFCDBF20E060
:10003000A0E6B0E001C01D92A336B207E1F720D1DF
:100040003FC1DECFDC01FA0110828C918623E9F7F3
:1000500085E88A95F1F7000087EC90E00197F1F7C9
:1000600000C000008C91862319F08081816080831C
:1000700087EC90E00197F1F700C000008C91862397
:1000800019F080818260808387EC90E00197F1F71E
:1000900000C000008C91862319F0808184608083E9
:1000A00087EC90E00197F1F700C000008C91862367
:1000B00019F080818860808387EC90E00197F1F7E8
:1000C00000C000008C91862319F0808180618083BC
:1000D00087EC90E00197F1F700C000008C91862337
:1000E00019F080818062808387EC90E00197F1F7BE
:1000F00000C000008C91862319F080818064808389
:1001000087EC90E00197F1F700C000008C91682324
:1001100019F080818068808387EC90E00197F1F787
:1001200000C0000095E89A95F1F700000895FC01E1
:100130009081862F809598239083A7ECB0E011974B
:10014000F1F700C00000908140FF65C0962B9083BE
:10015000A7ECB0E01197F1F700C00000908141FFDB
:100160005CC0962B9083A7ECB0E01197F1F700C02C
:100170000000908142FF53C0962B9083A7ECB0E023
:100180001197F1F700C00000908143FF4AC0962B01
:100190009083A7ECB0E01197F1F700C000009081C8
:1001A00044FF41C0962B9083A7ECB0E01197F1F784
:1001B00000C00000908145FF38C0962B9083A7ECCB
:1001C000B0E01197F1F700C00000908146FF2FC00A
:1001D000962B9083A7ECB0E01197F1F700C00000D8
:1001E00047FF27C08081862B808387EC90E00197B2
:1001F000F1F700C000008081682B6083A7ECB0E0BD
:100200001197F1F700C0000087EC90E00197F1F73B
:1002100000C00000089598239ACF9823A3CF982375
:10022000ACCF9823B5CF9823BECF9823C7CF9823C0
:10023000D0CF90818923D8CFCF93DF93EA0110925A
:10024000620010926100E0916100F0916200EC0F99
:10025000FD1F44914093600062E08BE390E067DF14
:10026000809161009091620001969093620080936A
:100270006100809160008111E6CFDF91CF910895F8
:10028000D398DB9ABA9A80E886BD16BCD99AD098E2
:10029000D19AC29A2FEF89E698E121508040904090
:1002A000E1F700C00000C2982FEF89E698E12150E5
:1002B00080409040E1F700C0000089B389B3FDCFD2
:0402C000F894FFCFE0
:00000001FF
