:1000000010C017C016C015C014C013C012C011C054
:1000100010C00FC00EC00DC00CC00BC00AC009C07C
:1000200008C011241FBECFE5D1E0DEBFCDBF87D011
:1000300097C0E6CFFC019081862F8095982390830E
:10004000ABECB0E01197F1F700C00000908140FFE9
:1000500065C0962B9083ABECB0E01197F1F700C030
:100060000000908141FF5CC0962B9083ABECB0E028
:100070001197F1F700C00000908142FF53C0962B0A
:100080009083ABECB0E01197F1F700C000009081D5
:1000900043FF4AC0962B9083ABECB0E01197F1F789
:1000A00000C00000908144FF41C0962B9083ABECD0
:1000B000B0E01197F1F700C00000908145FF38C013
:1000C000962B9083ABECB0E01197F1F700C00000E5
:1000D000908146FF2FC0962B9083ABECB0E0119738
:1000E000F1F700C0000047FF27C08081862B808386
:1000F0008BEC90E00197F1F700C000008081682B45
:100100006083ABECB0E01197F1F700C000008BEC1E
:1001100090E00197F1F700C00000089598239ACF6E
:100120009823A3CF9823ACCF9823B5CF9823BECFE5
:100130009823C7CF9823D0CF90818923D8CF80E848
:1001400086BD16BCD99AD19AC19AB998B199FECFF9
:1001500041E362E08BE390E06DDFB19BFECFF6CF31
:04016000F894FFCF41
:00000001FF
