:1000000010C017C016C015C014C013C012C011C054
:1000100010C00FC00EC00DC00CC00BC00AC009C07C
:1000200008C011241FBECFE5D1E0DEBFCDBF02D096
:1000300036C0E6CF80E886BD16BC80E28FBD82E187
:100040008EBD88EA91E695BD84BDDD98D59A42EED5
:1000500054E023E537E084EC99E059BD48BD6FEFEB
:1000600071E1EAE761507040E040E1F700C0000054
:1000700039BD28BD6FEF71E1EAE761507040E040A3
:10008000E1F700C0000099BD88BD6FEF71E1EAE7BC
:1000900061507040E040E1F700C00000DECFF8940E
:0200A000FFCF90
:00000001FF
