:1000000031C04BC02CC349C048C047C046C045C0E2
:1000100044C043C042C041C040C03FC03EC00902CE
:10002000190001010080640904000001FF000000C4
:100030000705810308000A12011001000000088171
:10004000179F0C04010002000116035500530042E3
:1000500000740069006E00790053005000490004EC
:100060000309040011241FBECFE5D1E0DEBFCDBFE0
:1000700010E0A0E6B0E0ECE8F9E002C005900D92D7
:10008000A436B107D9F720E0A4E6B0E001C01D9284
:10009000AB3AB207E1F741D477C4B2CFFC01DB0140
:1000A000AC014C5F5F4F619128E030E080E890E068
:1000B000762F782309F0C09A70916000072E00C057
:1000C0000000000000000A94D1F7C29A709160000D
:1000D000072E00C00000000000000A94D1F7990F1D
:1000E000B1999F5FC098C29886952150310901F758
:1000F0009D934E175F07B9F6089580916F00909118
:1001000070009C012F5F3F4F3093700020936F0071
:1001100020916C0027FF02C0880F991F80FD0FC03F
:1001200020936800292F269520936900969587953E
:1001300080936A0064E670E088E690E0AFCF2860C4
:10014000EFCFEF92FF921F93CF93DF93162FEC0127
:100150007C01E60EF11CCE15DF0539F4812FDF910D
:10016000CF911F91FF90EF900895C7DF80916700B6
:100170008993F1CFDF92EF92FF920F931F93CF936A
:10018000DF93EC017C01E60EF11C30E6D32ECE1598
:10019000DF0549F481E0DF91CF911F910F91FF902E
:1001A000EF90DF900895899180936B00A6DF809196
:1001B00068008D258093680000E010E080916D005C
:1001C00090916E000817190710F764E670E088E652
:1001D00090E064DF8091670090916B00891308C004
:1001E00090917200891721F0909171008913CFCFFF
:1001F0008091600090E025E0880F991F2A95E1F733
:10020000080F191FDBCFCF93DF93EC018981811198
:1002100008C0D0939000C0938F0088E0DF91CF9109
:100220000895EC81F0E0813039F490819883D09387
:100230009000C0938F00F2CF9A81823019F490839E
:1002400080E0ECCF492F477021E030E001C0220F61
:100250004A95EAF7833029F420958081282320836A
:10026000EFCF843019F48081282BF9CF853051F4F9
:1002700090936000B99887B3856287BB88B3887D07
:1002800088BBDECF863019F480E287BBF9CF873098
:1002900051F4BE01CE01029601DFD0939000C093CD
:1002A0008F0084E0BBCF883031F4909372008B8153
:1002B00080937100C5CF2C813D81309370002093D5
:1002C0006F00893029F480E280936C008FEFA6CF15
:1002D0008B3011F480EAF8CF2A813B8130936E0095
:1002E00020936D008A3011F480E4EECF8C3009F059
:1002F000A7CF80ECE9CFDF92EF92FF920F931F938D
:10030000CF93DF9308E010E0C0E0D0E8DD2EDC0EF4
:10031000D1BE92D17C0184E3E81689E0F8060CF4A2
:10032000CD2DD6950150110989F78FEF8C0F81BF24
:100330000C2F10E00F5F1F4F81B790E008171907CF
:1003400064F4C1BF61B780E090E0DF91CF911F916D
:100350000F91FF90EF90DF9009C36ED184539940C5
:1003600097FF03C09195819591098E159F0514F40F
:10037000C1B77C0181B78F5F81BFDECFCF93C62F1E
:100380002091800024FF17C02091810038E82327A6
:1003900020938100FC01A2E8B0E08C2F91919D9305
:1003A0008150E1F76C2F82E890E042D1CC5FC0939E
:1003B0008000CF9108952AE520938000EBCFCF9362
:1003C000DF9360919100635067FD90C080918E0033
:1003D000CCE0D0E0C81BD109CB56DF4F80918D0017
:1003E0008D3209F0CAC0683009F07EC083EC80937A
:1003F00075008AE58093620010927400888180768F
:1004000071F0CE0100DF8F3F09F466C09F8191112A
:1004100069C09E81981708F065C0892F63C02A8142
:1004200010927E00998191110AC010927F002EE7F0
:1004300030E082E03093900020938F00E7CF95303A
:1004400029F4209392002EE730E0F4CF963071F536
:100450009B81913059F487E390E0909390008093D2
:100460008F0082E190E490937400D0CF923041F4F9
:100470008EE190E09093900080938F0089E1F2CF1D
:10048000933081F7211108C08FE590E090939000A0
:1004900080938F0084E0E6CF223021F789E490E05A
:1004A0009093900080938F0086E1DCCF983069F0C4
:1004B000993019F420939400C6CF9A3051F09B30B4
:1004C00011F69BE490938100BECF24E930E081E0F7
:1004D000B1CF2EE730E0FBCF988197FD8E8190E879
:1004E000909374008093610010929100809162005B
:1004F00084FF2BC0809161008F3F39F1C82F893074
:1005000008F0C8E08C1B809361008091750098E82A
:10051000892780937500CC2361F08091740087FF58
:100520003EC06C2F86E790E00CDEC82F893008F0C3
:100530005AC06C2F86E790E07BD0CC5FCC3019F0AE
:100540008FEF80936100C093620084E196B398714D
:1005500031F48150D9F71092920010928C00C1E0D2
:100560008111C0E090917300C91721F08111C3DEA1
:10057000C0937300DF91CF9108958091740087FF3D
:10058000B3CFCE01F7DD8F3F21F48EE1809362007F
:10059000ABCF882309F4A8CF10926100A5CF40917A
:1005A0008F005091900086FF15C0A6E7B0E0FA01D9
:1005B0009C2F84918D9331969150D9F72FEF2C0F6A
:1005C00030E02F5F3F4F240F351F30939000209372
:1005D0008F00AFCFDA01E6E7F0E09C2F8D91819399
:1005E0009150E1F7EBCF8FEF80936100CEE1ABCF7D
:1005F000AC9A8BB780628BBFE0E8F0E08BE481833C
:100600008AE580830895A82FB92F80E090E041E02B
:1006100050EA609530E009C02D9182279795879523
:1006200010F084279527305EC8F36F5FA8F3089514
:10063000EADF8D939D930895A6E088279927AA95D0
:1006400069F00197E1F3B399FCCFB39BFECF81E052
:100650009927A6B3019611F0A871D9F70895CF9301
:10066000CFB7CF93C395B39BE9F7B39B0BC0B39BB5
:1006700009C0B39B07C0B39B05C0B39B03C0B39B2A
:1006800001C0D5C00F92DF93C0918E00DD27CB56FD
:10069000DF4F012EB39B03C0DF910F90E6CF2F9366
:1006A0000F931F934F932FEF4F6F06B303FB20F968
:1006B0005F933F9350E03BE065C016B3012650299D
:1006C00053FDC89556B3012703FB25F92F7306B3D5
:1006D000B1F05027102713FB26F906B22230F0F0B4
:1006E00000C016B3012703FB27F90126502906B2E3
:1006F0002430E8F54F77206816B30000F6CF502776
:100700004F7D206206B2102F000000C006B3002605
:100710005029102713FB26F906B2E2CF4F7B06B310
:10072000206400C0DACF01265029187106B269F1A1
:100730004E7F2160012F16B328C0002650294D7F1F
:1007400006B22260102F29C0012650294B7F06B225
:100750002460012F2DC016B301265029477F286041
:10076000000006B22EC04F7E06B3206130C0422783
:1007700006B3499300265029102706B24FEF13FB0A
:1007800020F9297F16B379F2187159F10126502901
:1007900006B2012703FB21F9237F06B371F200267D
:1007A00050293150D0F006B2102713FB22F9277ED2
:1007B00016B351F201265029012703FB06B223F993
:1007C0002F7C49F2000006B3102713FB24F9002602
:1007D000502906B22F7939F270CF10E21ABF0027E4
:1007E00019C03B503195C31BD04010E21ABF08819D
:1007F000033C09F10B34F9F020918C001981110FA1
:100800001213EDCF4A81441F093651F10D3211F018
:10081000013E29F7009393003F915F914F911F9103
:100820000F912F91DF910F90CAB7C5FD1BCFCF91CC
:10083000CFBFCF91189520919300222369F3109197
:100840009100112379F534307AF13093910020939F
:100850008D0010918E003BE0311B30938E0024C040
:10086000009191000130F4F40AE54F7049F43091A1
:10087000620034FD1AC000936200C5E7D0E019C0E1
:100880003091800034FD11C000938000C1E8D0E0B9
:1008900010C0052710E000C021C0052710E0C89552
:1008A00008BB14C03AE501C032ED032EC0E0D0E031
:1008B00032E017B31861C39A08B317BB58E120E8B8
:1008C0004FEF20FF052708BB279517951C3F28F7FA
:1008D00000004552B0F720FF0527279508BB179564
:1008E0001C3FB8F629913A9561F7077E1091920066
:1008F000110F08BBC250D04011F010938C0010E2D1
:100900001ABF086017B3177E402F477E54E05A95F0
:10091000F1F708BB17BB48BB7FCF80E287BB88BB22
:1009200080E090E01BD08F3F09F081BFBB9A84E14B
:10093000E2EBF1EF3197F1F700C000008150C1F711
:10094000BB989EE088E10FB6F894A89581BD0FBED4
:1009500091BD4EDE7894A89532DDFDCFE199FECFB2
:100960001FBA8EBBE09A99278DB30895262FE1997F
:10097000FECF1CBA1FBA8EBB2DBB0FB6F894E29AFD
:0C098000E19A0FBE01960895F894FFCF95
:04098C0032FF5A00DC
:00000001FF
